:100000000C943A000C9475010C9475010C947501D4
:100010000C9475010C9475010C9475010C94750188
:100020000C9475010C9475010C9475010C94750178
:100030000C9475010C9475010C9475010C94750168
:100040000C9475010C9475010C9475010C94750158
:100050000C9475010C9475010C9475010C94750148
:100060000C9475010C947501010001160002F80151
:100070001601188011241FBECFEFD8E0DEBFCDBF20
:10008000E8E6F0E040E017C0B591A59135912591E3
:10009000059107FD0CC095918591EF01F92FE82F8F
:1000A00005900D92A217B307D9F7FE0104C01D9267
:1000B000A217B307E1F7E437F40731F70E944601CE
:0800C0000C945A01F894FFCFE3
:1000C8008F929F92AF92BF92EF92FF920F931F93DE
:1000D800CF93DF93611571058105910509F46AC015
:1000E8009B01AC01220F331F441F551F220F331FE2
:1000F800441F551F60E074E284EF90E00E940D01F8
:1001080049015A0180910A0190910B0190931701BE
:1001180080931601209116013091170140E050E0BC
:10012800C501B4010E940D01211531054140510559
:10013800E8F00CE011E0C1E0D0E07E01F801819127
:1001480091918F01909317018093160120911601C8
:100158003091170140E050E0C501B4010E940D0143
:100168002115310541405105F8F402C0E12CF12C6C
:10017800F701EE0FFF1FE050FF4F808191818061F2
:100188009093150180931401209116013091170165
:1001980040E050E0C501B4010E940D013093890090
:1001A8002093880081E007C02196C530D10529F643
:1001B80080E001C080E0DF91CF911F910F91FF9007
:0C01C800EF90BF90AF909F908F90089533
:1001D4002091160130911701A0E0B0E0880F991F1B
:1001E400AA1FBB1F880F991FAA1FBB1FBC01CD01EB
:1001F400660F771F881F991F40E050E00E940D0191
:10020400DA01C901B695A7959795879590938B00C8
:0602140080938A000895AA
:10021A00A1E21A2EAA1BBB1BFD010DC0AA1FBB1F00
:10022A00EE1FFF1FA217B307E407F50720F0A21B72
:10023A00B30BE40BF50B661F771F881F991F1A94DF
:10024A0069F760957095809590959B01AC01BD0109
:04025A00CF01089533
:10025E0010928000109281001092850010928400FE
:10026E0010928700109286001092890010928800DA
:0E027E0010928B0010928A0010926F0008956B
:10028C008FEF84B978940E942F010E9465016AE077
:10029C0070E080E090E00E94640082E390E00E94B5
:0802AC00EA000E946E01FFCF81
:1002B400EC010E947A010E947901CE010E947B0127
:0602C400CE010E9477014B
:1002CA0081EA8093800080E18093810010926F0020
:0202DA00089585
:0E02DC00809114019091150180938100089586
:0402EA000C94000070
:0402EE000E94620008
:0202F20008956D
:0202F40008956B
:0202F600089569
:0A02F80001000200030004000500ED
:0A03020001000800400000010004A3
:02030C001000DF
:00000001FF
