:100000000C9472000C94FC000C94FC000C94FC000A
:100010000C94FC000C94FC000C94FC000C94FC0070
:100020000C94FC000C94FC000C94FC000C94FC0060
:100030000C94FC000C94FC000C94FC000C94FC0050
:100040000C94FC000C94FC000C94FC000C94FC0040
:100050000C94FC000C94FC000C94FC000C94FC0030
:100060000C94FC000C94FC000C94FC000C94FC0020
:100070000C94FC000C94FC000C94FC000C94FC0010
:100080000C94FC000C94FC000C94FC000C94FC0000
:100090000C94FC000C94FC000C94FC000C94FC00F0
:1000A0000C94FC000C94FC000C94FC000C94FC00E0
:1000B0000C94FC000C94FC000C94FC000C94FC00D0
:1000C0000C94FC000C94FC000C94FC000C94FC00C0
:1000D0000C94FC000C94FC000C94FC000C94FC00B0
:1000E0000C94FC0011241FBECFEFD1E2DEBFCDBFC8
:1000F00000E00CBF0E94D0000C94E400F894FFCF05
:10010000A1E21A2EAA1BBB1BFD010DC0AA1FBB1F1B
:10011000EE1FFF1FA217B307E407F50720F0A21B8D
:10012000B30BE40BF50B661F771F881F991F1A94FA
:1001300069F760957095809590959B01AC01BD0124
:04014000CF0108954E
:100144001092800010928100109285001092840019
:1001540010928700109286001092890010928800F5
:0E01640010928B0010928A0010926F00089586
:10017200009799F09C01220F331F40E050E060E0AD
:1001820074E284EF90E00E948000215031093093A4
:0E01920089002093880081E0089580E00895A0
:1001A0008FEF84B978940E94A2000E94EF0080ED46
:1001B00097E00E94B90082E390E090938B008093D7
:0801C0008A000E94F800FFCF45
:1001C800EC010E9401010E940001CE010E9402017F
:0601D800CE010E94FE00B2
:1001DE0081E28093800080E18093810010926F0015
:0201EE00089572
:0801F00081E180938100089574
:0401F8000C94000063
:0401FC000E947E00DF
:0202000008955F
:0202020008955D
:0202040008955B
:00000001FF
