:100000000C9472000C94C5000C94C5000C94C500AF
:100010000C94C5000C94C5000C94C5000C94C5004C
:100020000C94C5000C94C5000C94C5000C94C5003C
:100030000C94C5000C94C5000C94C5000C94C5002C
:100040000C94C5000C94C5000C94C5000C94C5001C
:100050000C94C5000C94C5000C94C5000C94C5000C
:100060000C94C5000C94C5000C94C5000C94C500FC
:100070000C94C5000C94C5000C94C5000C94C500EC
:100080000C94C5000C94C5000C94C5000C94C500DC
:100090000C94C5000C94C5000C94C5000C94C500CC
:1000A0000C94C5000C94C5000C94C5000C94C500BC
:1000B0000C94C5000C94C5000C94C5000C94C500AC
:1000C0000C94C5000C94C5000C94C5000C94C5009C
:1000D0000C94C5000C94C5000C94C5000C94C5008C
:1000E0000C94C50011241FBECFEFD1E2DEBFCDBFFF
:1000F00000E00CBF0E9497000C94AD00F894FFCF75
:10010000109280001092810010928500109284005D
:100110001092870010928600109289001092880039
:0E01200010928B0010928A0010926F000895CA
:10012E008FEF84B978940E9480000E94B8008FEC03
:10013E0097E0909389008093880082E390E09093FB
:0C014E008B0080938A000E94C100FFCF4C
:10015A00EC010E94CA000E94C900CE010E94CB0095
:06016A00CE010E94C70057
:1001700081E28093800080E18093810010926F0083
:020180000895E0
:0801820081E1809381000895E2
:04018A000C940000D1
:04018E000E947E004D
:020192000895CE
:020194000895CC
:020196000895CA
:00000001FF
