:100000000C9434000C9479000C9479000C947900D1
:100010000C9479000C9479000C9479000C9479007C
:100020000C9479000C9479000C9479000C9479006C
:100030000C9479000C9479000C9479000C9479005C
:100040000C9479000C9479000C9479000C9479004C
:100050000C9479000C9479000C9479000C9479003C
:100060000C9479000C94790011241FBECFEFD8E0D6
:10007000DEBFCDBF0E9462000C945700F894FFCF02
:1000800010928000109281001092850010928400DE
:1000900010928700109286001092890010928800BA
:0E00A00010928B0010928A0010926F0008954B
:1000AE00EC010E947E000E947D00CE010E947F0026
:0600BE00CE010E947B0050
:1000C4008FEF84B978940E9440000E946C000E94D3
:0400D4007500FFCFE5
:1000D80080E4809380001092810081E080936F001B
:0200E800089579
:0800EA0081E08093810008957C
:0400F2000C9400006A
:0400F6000E943E0026
:0200FA00089567
:0200FC00089565
:0200FE00089563
:00000001FF
